:100000000C9475440C94A6440C94A6440C94A644F9
:100010000C94A6440C94A6440C94A6440C94A644B8
:100020000C94A6440C94A6440C94A6440C94A644A8
:100030000C94A6440C94C2E50C94A6440C94A644DB
:100040000C94A6440C9406A10C94A6440C94A644CB
:100050000C94A6440C94A6440C9491F80C948EE64F
:100060000C94A6440C9467F80C9437F80C94A644AE
:100070000C94A6440C94A6440C94A6440C94A64458
:100080000C94F7A80C94A6440C94A6440C94A64493
:100090000C94A6440C94A6440C94A6440C94A64438
:1000A0000C94A6440C94A6440C94A6440C94A64428
:1000B0000C94A6440C94A6440C94A6440C94A64418
:1000C0000C94A6440C94A6440C94A6440C94A64408
:1000D0000C94A6440C94A6440C94A6440C94A644F8
:1000E0000C94A644524B574B5C4B684B744B014CE1
:1000F000804B884B904B9C4BA84BB44BC54BD14B82
:10010000014CDD4BE94BF54B1B98479647964796BC
:1001100047964796479647964796479647964796F7
:1001200047964796479647964796479647964796E7
:10013000479647964796BD97CE9798978797159776
:1001400022976496AC975C976997DF97F0977C96B7
:100150004F9601984C9747967A973F9732974796D4
:1001600047964796E896F896059747964796479696
:10017000479647964796BD97CE9798978797159736
:1001800022976496AC975C976997DF97F0977C9677
:100190004F9601984C9747967A973F973297479694
:1001A00047964796E896F896059716A92AA92EA984
:1001B00043A949A95FA952A95FA9ECE4EFE4DEE4F1
:1001C000E2E4E8E426E5F3E4F7E4FDE401E505E52F
:1001D0000BE50FE513E526E519E51DE521E5084AE0
:1001E000D73B3BCE016E84BCBFFDC12F3D6C74314B
:1001F0009ABD56833DDA3D00C77F11BED9E4BB4CA2
:100200003E916BAAAABE000000803F05A84CCDB26B
:10021000D44EB93836A9020C50B9918688083CA64C
:10022000AAAA2ABE000000803F000D94A3144E41EC
:100230004E494E495459494E46CDCCCC3D0AD72360
:100240003C17B7D13877CC2B329595E6241FB14FA8
:100250000A000020410000C84200401C4620BCBEED
:100260004CCA1B0E5AAEC59D740000000000000071
:1002700000001C01000000000000000000F400006D
:1002800000000000000000001B0100000000000052
:1002900000000017010000000000000000001C0129
:1002A000000000000000000000F40000000000005A
:1002B000000000001A01000000000000000000170C
:1002C000010000000000000000001C010000000010
:1002D0000000000000F4000000000000000000002A
:1002E00019010000000000000000001701000000DC
:1002F0000000000000001C010000000000000000E1
:1003000000F40000000000000000000018010000E0
:100310000000000000000017018A027F02740269D9
:1003200002B602AB02A0029502E202D702CC02C1E1
:10033000020E030303F802ED02456E642066696C49
:1003400065206C69737400426567696E2066696C2C
:1003500065206C697374005344207072696E74690F
:100360006E67206279746520004E6F7420534420BC
:100370007072696E74696E670057726974696E672E
:1003800020746F2066696C653A20006F70656E207E
:100390006661696C65642C2046696C653A2000438F
:1003A00072656174696F6E206661696C6564004492
:1003B00069726563746F72792063726561746564D4
:1003C00000206D696E0020686F75727320002064D4
:1003D00061797320005072696E74696E6720746968
:1003E0006D653A006D20005072696E746564206618
:1003F000696C616D656E743A005265747261637404
:10040000696F6E20756E646F20737065656400455A
:100410007874726120657874727573696F6E206F7D
:100420006E20756E646F2072657472616374205BF8
:100430006D6D5D0052657472616374696F6E207AD0
:100440002D6C696674205B6D6D5D00526574726120
:100450006374696F6E207370656564205B6D6D2FCA
:10046000735D0052657472616374696F6E206C65B0
:100470006E677468205B6D6D5D00456E61626C65D2
:100480002072657472616374696F6E20636F6E763B
:10049000657273696F6E205B302F315D0074616E21
:1004A000585A204178697320436F6D70656E73618F
:1004B00074696F6E0074616E595A204178697320B7
:1004C000436F6D70656E736174696F6E0074616EF9
:1004D0005859204178697320436F6D70656E736160
:1004E00074696F6E004175746F6C6576656C206120
:1004F00063746976652028312F302900436F617459
:10050000696E6720746869636B6E657373205B6DD9
:100510006D5D00436F72722E20646961676F6E615A
:100520006C2043205B6D6D5D00436F72722E206402
:100530006961676F6E616C2042205B6D6D5D004389
:100540006F72722E20646961676F6E616C2041204A
:100550005B6D6D5D0044656C74612052616469750A
:100560007320432830293A0044656C74612052613D
:100570006469757320422830293A0044656C7461BF
:100580002052616469757320412830293A00416C1A
:100590007068612043283930293A00416C706861E5
:1005A000204228333330293A00416C706861204181
:1005B00028323130293A00546F776572205A20650D
:1005C0006E6473746F70206F6666736574205B73FE
:1005D000746570735D00546F776572205920656E85
:1005E0006473746F70206F6666736574205B7374D8
:1005F0006570735D00546F776572205820656E6476
:1006000073746F70206F6666736574205B737465B6
:1006100070735D004D6178207072696E7461626CF8
:100620006520726164697573205B6D6D5D00486F54
:1006300072697A6F6E74616C20726F64207261648B
:1006400069757320617420302C30205B6D6D5D0006
:10065000446961676F6E616C20726F64206C656EB7
:10066000677468205B6D6D5D0054726176656C2007
:10067000616363656C65726174696F6E205B6D6D3B
:100680002F735E325D00416363656C6572617469EE
:100690006F6E205B6D6D2F735E325D005365676D0D
:1006A000656E74732F7320666F72207072696E743A
:1006B000696E67005365676D656E74732F7320668E
:1006C0006F722074726176656C005061726B20707D
:1006D0006F736974696F6E205A2072616973652047
:1006E0005B6D6D5D005061726B20706F7369746932
:1006F0006F6E2059205B6D6D5D005061726B2070D4
:100700006F736974696F6E2058205B6D6D5D005A60
:10071000206D6178206C656E677468205B6D6D5D1F
:100720000059206D6178206C656E677468205B6D80
:100730006D5D0058206D6178206C656E677468206F
:100740005B6D6D5D005A206D696E20706F73205B6C
:100750006D6D5D0059206D696E20706F73205B6D4B
:100760006D5D0058206D696E20706F73205B6D6D3C
:100770005D004D61782E206A65726B205B6D6D2F78
:10078000735D00486F6D696E6720666565647261B0
:100790007465205B6D6D2F735D004D61782E206652
:1007A00065656472617465205B6D6D2F735D0053C8
:1007B0007465707320706572206D6D0053746F7076
:1007C000207374657070657220616674657220694B
:1007D0006E6163746976697479205B6D732C303D4A
:1007E0006F66665D004D61782E20696E6163746985
:1007F00076652074696D65205B6D732C303D6F6686
:10080000665D005072696E7465722061637469760A
:1008100065205B735D004261756472617465004CB4
:10082000616E6775616765004E6F20636173652057
:100830006C6967687473004D617842656454656DD6
:10084000703A005072696E746572547970653A44FA
:10085000656C7461005A54726176656C41636365BE
:100860006C3A005954726176656C416363656C3A09
:10087000005854726176656C416363656C3A005A46
:100880005072696E74416363656C3A0059507269C5
:100890006E74416363656C3A00585072696E7441BE
:1008A0006363656C3A005A53697A653A0059536933
:1008B0007A653A005853697A653A005A4D61783A38
:1008C00000594D61783A00584D61783A005A4D69A7
:1008D0006E3A00594D696E3A00584D696E3A0052B1
:1008E000657472616374696F6E556E646F53706581
:1008F00065643A0052657472616374696F6E556E17
:10090000646F45787472614C6F6E674C656E677486
:10091000683A0052657472616374696F6E556E64F3
:100920006F45787472614C656E6774683A00526501
:100930007472616374696F6E5A4C6966743A0052DE
:10094000657472616374696F6E53706565643A00B3
:1009500052657472616374696F6E4C6F6E674C653B
:100960006E6774683A0052657472616374696F6E81
:100970004C656E6774683A004B656570416C6976CA
:1009800065496E74657276616C3A004A65726B589F
:10099000593A005072696E746C696E6543616368A0
:1009A000653A00454550524F4D3A004175746F6CA1
:1009B0006576656C3A005A50726F62653A00436121
:1009C00073654C69676874733A00537570706F7221
:1009D000744C6F63616C46696C616D656E746368BD
:1009E000616E67653A00537570706F72744731308D
:1009F0004731313A005A486F6D65506F733A00596C
:100A0000486F6D65506F733A0058486F6D65506F51
:100A1000733A005A486F6D654469723A0059486FDD
:100A20006D654469723A0058486F6D654469723A61
:100A300000536F667477617265506F776572537794
:100A4000697463683A004C43443A0046616E323A36
:100A5000300046616E3A005344436172643A004884
:100A600065617465644265643A004D6978696E67D2
:100A700045787472756465723A004E756D45787488
:100A800072756465723A00496E7075744275666677
:100A900065723A0042617564726174653A0005CB13
:100AA000040400190305CB040400210305CB04044E
:100AB00000290305CB0404003103696E666F3A43D5
:100AC0006F6E74696E75652066726F6D20666174F5
:100AD000616C207374617465000054657374696E91
:100AE0006720666174616C206572726F72002049C4
:100AF0006E743A0052656D3A00207761726D7570C0
:100B00003A0020466C6167733A004A466C6167732D
:100B10003A004E6F206D6F7665002C57503A002CCE
:100B20004C503A004275663A00427566666572201E
:100B3000636F7272757074656400436F6E66696787
:100B400075726174696F6E206C6F61646564206694
:100B5000726F6D20454550524F4D2E00436F6E66AB
:100B6000696775726174696F6E2073746F72656402
:100B700020746F20454550524F4D2E00436F6C64DA
:100B800020657874727573696F6E20646973616C27
:100B90006C6F77656400436F6C6420657874727560
:100BA00073696F6E20616C6C6F7765640057617458
:100BB0006368646F6720666561747572652077612C
:100BC00073206E6F7420636F6D70696C656420694B
:100BD0006E746F20746869732076657273696F6EC6
:100BE00021004A65726B3A0020746F2000536574CF
:100BF00020766F6C756D65747269632065787472A8
:100C00007573696F6E20666F722065787472756493
:100C10006572200044697361626C656420766F6C54
:100C2000756D657472696320657874727573696F28
:100C30006E20666F7220657874727564657220002C
:100C4000205A533A002059533A0058533A00505210
:100C500045484541543A3100504155534553544F4E
:100C6000503A3100544F47474C455F4C4947485430
:100C7000533A3000534F4654574152455F504F57F7
:100C800045523A31005A5F50524F42453A30004186
:100C900055544F4C4556454C3A3000454550524FFF
:100CA0004D3A31004155544F5245504F52545F54C4
:100CB000454D503A310050524F47524553533A3107
:100CC000004649524D574152455F4E414D453A52BB
:100CD000657065746965725F312E302E3320434F25
:100CE0004D50494C45443A417567203238203230E6
:100CF0003139204649524D574152455F55524C3A81
:100D000068747470733A2F2F6769746875622E6304
:100D10006F6D2F72657065746965722F52657065AD
:100D2000746965722D4669726D776172652F205006
:100D3000524F544F434F4C5F56455253494F4E3AD2
:100D4000312E30204D414348494E455F545950455E
:100D50003A44656C74612045585452554445525F7D
:100D6000434F554E543A3020524550455449455210
:100D70005F50524F544F434F4C3A330050696E20EE
:100D800063616E206E6F74206265207365742062EB
:100D900079204D34322C20697320696E2073656E82
:100DA0007369746976652070696E7321200020690B
:100DB000732000496C6C6567616C20532076616C10
:100DC000756520666F72204D34320020746F2000EC
:100DD000536574206F75747075743A200000013685
:100DE000372603023C3D380E0F2E303E12130D0CF9
:100DF0000A081A1C1824221E0D0E35521047103CEA
:100E00001031102610536F66747761726520526539
:100E1000736574005761746368646F67205265730B
:100E200065740042726F776E206F7574205265731F
:100E300065740045787465726E616C2052657365E7
:100E40007400506F776572557000110A0411040A1E
:100E50001111001C1F11111F0000040A0A0A0E1FA5
:100E60001F0E001F1111111F0000001F1F1F1F1F49
:100E70000000040A040000000000040E150404042D
:100E80001C00535041434531302052455345415297
:100E9000434800524550455449455220364158492F
:100EA0005300526570657469657220312E302E339F
:100EB00000467265652052414D3A008200000500EF
:100EC000FB0D4E65656473206C616E6775616765C7
:100ED0002073656C656374696F6E004175746F7221
:100EE0006574726163743A0073746172740057724E
:100EF0006F6E6720636865636B73756D00776169FA
:100F0000740000000000000000000062000000000B
:100F10000000000000006100000000000000000070
:100F20000060000000000000000000005F00000002
:100F3000000000000000006E000000000000000043
:100F400000006D000000000000000000006C0000C8
:100F500000000000000000006B00230F180F0D0FB1
:100F6000020F4F0F440F390F2E0F03550404005A80
:100F70000F0356040400620F4974616C69616E6F5F
:100F8000004672616E6361697300457370616E6FD4
:100F90006C004465757473636800456E676C6973B3
:100FA0006800000003AC0F00000000B40000000265
:100FB0006A0F000000002100000002710F00000015
:100FC000002200000004130400000000560000008E
:100FD0000416040000000052000000040E0400008B
:100FE000000037000000040D04000000003600007F
:100FF00000040A04000000003200000000000000AD
:1010000000000089000000000000000000008800CF
:10101000000000000000000000860000000000004A
:10102000000000008500780F03A8260000000000E3
:1010300000810F03AB260000000000008A0F03A907
:1010400026000000000000920F03A526000000000B
:1010500000009A0F03A42600000000000000000317
:101060008204000000000A01000003810400000067
:10107000003F000000038004000000003E0000006C
:10108000037F04000000003D000000037E04000018
:1010900000003C0076160015B80FAD0FA20F7616B3
:1010A000CE0FC30F7616EF0FE40FD90F0510FA0F0E
:1010B0001B1010107616521047103C1031102610DD
:1010C000761689107E10731068105D1002000005FE
:1010D00000941002000003009E100200000400A40F
:1010E000100358040200AC100320040200B01002E8
:1010F00000000600B4100200000600C0100000024C
:10110000CC1000000000B500000003DB040000006C
:101110000037010000030704000000003B0000004E
:10112000030604000000003A00000002D310000093
:1011300000004E00000002DA10000000003900003C
:101140000002E110000000008700000002E810002B
:1011500000000084000000041004000000008B0068
:10116000000002EF1000000000E400000003B404DF
:1011700000000000D200000003B20400000000D014
:1011800000000003C804000000001F01000002F678
:1011900010000000001100000004BD040000100059
:1011A000E300000003B90400001000E100000003A8
:1011B000B80400001000E000000003B604000010B6
:1011C00000DF00000003B50400001000DE00000096
:1011D00003BE0400001000DD00000003B70400009F
:1011E0001000DC00000004B60F0000000009010040
:1011F0000004B50F000000000801000004B40F0057
:101200000000000701000000000000000000F200E4
:10121000000000000000000000AB00000000000023
:101220000000000070000000000000000000006FDF
:1012300000000003E803000000002D010000038807
:1012400013000000002C01000004F2030000000065
:101250002A01000001000000000000CB00761660AB
:101260001155114A113F11341129111E1113110882
:1012700011FD1076168C11811176116B117616D92D
:1012800011CE11C311B811AD11A21197117616FA32
:1012900011EF11E41126121B1210120512521247FF
:1012A000123C1231120200000B005D120200000518
:1012B00000731202000008007D1202000004008D7D
:1012C0001203F0030400951282000004009D120036
:1012D0000002A512000010000D00000002AC120078
:1012E0000010000E01000002E518000000001000D0
:1012F000000002B31200001000D9000000029F1885
:10130000000010000E00000004570410000000CA86
:1013100000000003B40410000000D20000000452DA
:1013200004100000007E00000002C812100000003F
:10133000CB000000041F0410000000B000000003F8
:10134000C404040000004A000000034B0410000421
:10135000004900000003C50410000400C90000009B
:1013600002AD18000010000B00000000000000009B
:1013700000001C0100000000000000000016010039
:101380000000000000000000150100000000000047
:101390000000001401000000000000000000E00058
:1013A000000000000000000000DA00000000000063
:1013B00000000000DF00000000000000000000DA74
:1013C00000000000000000000000E100000000003C
:1013D0000000000000DA0000000000000000000033
:1013E000DE00000000000000000000DA0000000045
:1013F000000000000000DD00000000000000000010
:1014000000DA00000000000000000000DC00000026
:1014100000000000000000DA0000000000000000F2
:101420000000CF00000000000000000000CE00001F
:101430000000000000000000CD00000000000000DF
:10144000000000CC00000002BA12000000000601FB
:10145000000004B30400000000D100000002C9181D
:10146000000000002100000002B41800000000226B
:1014700000000002D018000000001F00000002BBA6
:1014800018000000002000000002D7180000000033
:101490001D00000002C218000000001E0000000332
:1014A0004404000000002E00000002C112000000F1
:1014B000002300000003360400000000C600000006
:1014C000034304000010001C00000003310400006E
:1014D00010001B00000002C81200000000CB00003A
:1014E00000045204000000007E000000041F0400FD
:1014F000000000B000000004570400000000CA0013
:10150000000003FD030000100013000000000000B5
:10151000000000006E000000000000000000006DF0
:10152000000000000000000000006C00000000004F
:1015300000000000006B0000000000000000000040
:101540006A000000000000000000006900000000C8
:101550000000000000006800000000000000000023
:1015600000670000000000000000000066000000AE
:101570000000000000000065000000000000000006
:101580000000640000000000000000000063000094
:1015900000000000000000006200000000000000E9
:1015A000000000610000000000000000000060007A
:1015B0000000000000000000005F000000000000CC
:1015C000000000005E000000000000000000005D60
:1015D000000000000000000000005C0000000000AF
:1015E00000000000005B00000000000000000000A0
:1015F0005A00000000000000000000590000000038
:101600000000000000005800000000000000000082
:10161000005700000003C624100000000300000073
:1016200003E80300000000040000000100000000C7
:101630000000F400000001000000000000C90000EC
:101640000003F403010002004D00000002DE180256
:10165000000000C900000003F703060000004A0074
:10166000000003F603020004004900000003F50334
:10167000010002004800000003E803000000000A27
:101680000000000000000000000039010000000020
:101690000000000000380100000000000000000011
:1016A000A800000000000000000000A700000000EB
:1016B000000000000000A600000000000000000084
:1016C00000A5000000000000000000001301000061
:1016D00000000000000000F4000000000000000016
:1016E00000002001000000000000000000F400766F
:1016F000165E13531348133D13321327131C131193
:101700001306136B16FB12F012E512DA12CF128ACF
:10171000137F1374136913A0139513B613AB13CC73
:1017200013C113E213D713F813ED130E1403143A75
:10173000142F142414191476160015921487147C8F
:1017400014711466145B14A814501445147616A86A
:10175000149D1476160015F514EA14DF14D414C978
:1017600014BE14B3142C15211516150B1558154D50
:101770001542153715841579156E156315B015A525
:10178000159A158F15DC15D115C615BB150816FD54
:1017900015F215E715341629161E16131676166B54
:1017A00016601655164A163F1676168C168116A226
:1017B000169716B816AD16E416D916CE16C31652DD
:1017C00065717565737450617573653A0052657122
:1017D00075657374436F6E74696E75653A002F2F6B
:1017E00020616374696F6E3A726573756D6500444C
:1017F000656C6574696F6E206661696C656400462E
:10180000696C652064656C65746564000200001095
:1018100000EF1605CD0404000F1703102702001770
:101820001703102702001B1703102702001F1703BE
:101830001027020023170310270200271703102781
:1018400002002B17454550524F4D2075706461744E
:101850006564005072696E746572206865696768B6
:10186000743A0005881304002F172F2F206163742A
:10187000696F6E3A706175736500696D706F72742F
:10188000616E743A2046696C616D656E74206368A0
:10189000616E676520726571756972656421000209
:1018A00000000B00371702000003004D1702000074
:1018B0000900531703FC030400651703FB0304002E
:1018C0006D1703FA030400751703EF0304007D1777
:1018D00003EE030400851703ED0304008D170200D7
:1018E000000400951702000006009D17010000018A
:1018F00000A9170310270200AB170310270200AF3F
:10190000170310270200B3174A616D20636F6E74CE
:10191000726F6C2064697361626C65643A0005CC17
:10192000040400B717496E76616C696420617263C4
:1019300000582028412920746F77657220666C6FEB
:101940006F722073657420746F3A2000592028420A
:101950002920746F77657220666C6F6F72207365D3
:101960007420746F3A20005A2028432920746F771E
:10197000657220666C6F6F722073657420746F3AA5
:1019800020006D6F7665546F202F20717565756529
:1019900044656C74614D6F76652072657475726E06
:1019A00073206572726F7200506F7346726F6D5361
:1019B000746570733A002C00436F6D7044656C74ED
:1019C000613A00546F77657220333A00546F77653F
:1019D0007220323A00546F77657220313A004361C9
:1019E0006C6962726174696F6E206D6F76656D658A
:1019F0006E74206973206C696D6974656420746FFE
:101A00002031306D6D2E004669727374206D6F76D3
:101A10006520746F20746F75636820617420782C62
:101A2000793D302C3020746F206175746F2D736593
:101A300074207261646975732E0043616C6962720F
:101A40006174696F6E206D6F76656D656E74206967
:101A500073206C696D6974656420746F2031306D1A
:101A60006D2E0043616E6E6F742073657420726119
:101A70006469757320616E6420666C6F6F7220619B
:101A8000742073616D652074696D652E0043616C0F
:101A90006962726174696F6E20636F646520697337
:101AA000206C696D6974656420746F20626F747452
:101AB0006F6D20313025206F66205A206865696778
:101AC00068740020435F4F46465345543A00204215
:101AD0005F4F46465345543A00415F4F4646534593
:101AE000543A00205A5F4F46465345543A00205915
:101AF0005F4F46465345543A00585F4F464653455C
:101B0000543A0052656C617469766520706F736930
:101B100074696F6E696E67004162736F6C7574658E
:101B200020706F736974696F6E696E6700427566C5
:101B300066657220636F7272757074656400657893
:101B4000656375746547436F6465202F2071756503
:101B5000756544656C74614D6F766520726574754A
:101B6000726E73206572726F7200556E6B6E6F7756
:101B70006E20636F6D6D616E643A00005344207097
:101B800072696E742073746F70706564206279205E
:101B9000757365722E00008025000040380000003B
:101BA0004B00008070000000960000C0DA000000CA
:101BB000E10000002C010008B2010000C201000099
:101BC000F401000084030090D0030000E80300004B
:101BD00008070020A1070000100E0040420F00601F
:101BE000E3160000000000204D4A3A0049443A0044
:101BF00052656D61696E696E672073746570733AC2
:101C000000416363656C65726174696F6E20507228
:101C1000696D3A00416363656C65726174696F6EEA
:101C20003A00764D61783A0066756C6C5370656564
:101C3000643A004469723A0044656C746100436F11
:101C40006E7374616E742066756C6C20737065655C
:101C500064206D6F76652074696D653A00436F6D21
:101C60006D616E6465642066656564726174653A71
:101C7000004D6F76652064697374616E6365206FD3
:101C80006E207468652058595A2073706163653AF4
:101C9000004C696D6974496E74657276616C3A00C6
:101CA000000000000000000000F300000000000041
:101CB00000000000F400000000000000000000F43C
:101CC00000000000000000000000F4000000000020
:101CD0000000000000F30000000000000000000011
:101CE0005F000000000000000000005B000000003A
:101CF000000000000000570000000000000000008D
:101D000000F300000000000000000000EE000000F2
:101D100000000000000000ED0000000000000000D6
:101D20000000F400C11CB61CAB1CA01CED1CE21C86
:101D3000D71CCC1C191D0E1D031DF81C000000042F
:101D400000241D00000004002C1D000000040034CD
:101D50001D46696C652073656C656374656400205D
:101D600053697A653A0046696C65206F70656E65E7
:101D7000643A0066696C652E6F70656E20666169F5
:101D80006C65640000002100240027002A002D005B
:101D90003000330001010000040107010A010102C3
:101DA000102020080810204010204080020102016D
:101DB0000804020101020408102040808040201025
:101DC000080402018004020180402010080402017E
:101DD00008040201010204081020408001020408E6
:101DE00010204080050505050705080808080202BF
:101DF00002020A0A080804040404010101010101A5
:101E000001010303030303030303040707070C0C87
:101E10000C0C0C0C0C0C020202020606060606064E
:101E200006060B0B0B0B0B0B0B0B4A1D431D3C1D2E
:101E3000627573793A70726F63657373696E670068
:101E4000446F6F72206F70656E00627573793A64CB
:101E50006F6F72206F70656E00627573793A686596
:101E60006174696E6700627573793A706175736544
:101E70006420666F72207573657220696E74657276
:101E8000616374696F6E00526573656E643A006FCA
:101E90006B200020676F7420004572726F723A6584
:101EA00078706563746564206C696E652000736B7F
:101EB000697020006F6B004563686F3A00466F726F
:101EC0006D6174206572726F7200436865636B7335
:101ED000756D207265717569726564207768656ECD
:101EE00020737769746368696E67206261636B2031
:101EF000746F2041534349492070726F746F636F50
:101F00006C2E00204F00204C00204B00204200206F
:101F10004100204800204300204400205200204A75
:101F2000002049002050002053002046002045009A
:101F3000205A00205900205800202D205072696E30
:101F40007465722073746F7070656420616E6420B4
:101F5000686561746572732064697361626C65643D
:101F60002064756520746F207468697320657272CF
:101F70006F722E20466978206572726F7220616ED2
:101F80006420726573746172742077697468204D7F
:101F90003939392E00666174616C3A00534420650A
:101FA00072726F7220646964206E6F742072656350
:101FB0006F76657221005344206572726F722066DD
:101FC00069786564005344205265616420457272EB
:101FD0006F720053442072656164206572726F7283
:101FE00000446F6E65207072696E74696E6720665A
:101FF000696C6500424C4B200052657175657374C5
:1020000050617573653A486F6D696E6720666169E6
:102010006C656421005265717565737453746F70DB
:102020003A006D6F7665546F5265616C202F207198
:102030007565756544656C74614D6F766520726574
:102040007475726E73206572726F72002020203F6B
:102050002E3F3F0020486F6D696E6700040003004B
:1020600020000000003FCDCC4C3D0AD7A33B6F12AF
:10207000033A17B75138ACC5A7366D6F7665546F04
:102080005265616C202F20717565756544656C74AF
:10209000614D6F76652072657475726E732065721E
:1020A000726F7200206D6F76652069676E6F726562
:1020B0006420005344206361726420696E7365720A
:1020C00074656400534420636172642072656D6FAF
:1020D00076656400000000000000000000F70000CA
:1020E0000000000000000000DA00DF20D420031010
:1020F000270200EA206572726F7220777269746934
:102100006E6720746F2066696C65005049442041F9
:1021100075746F74756E652066696E697368656441
:10212000202120506C61636520746865204B702C01
:10213000204B6920616E64204B6420636F6E737462
:10214000616E747320696E2074686520436F6E66DB
:10215000696775726174696F6E2E68206F722045B1
:102160004550524F4D00446F6E6520736176696E25
:10217000672066696C652E002F005344204361720E
:102180006420756E6D6F756E746564004361726472
:10219000207375636365737366756C6C7920696E03
:1021A000697469616C697A65642E0043616E277495
:1021B000206F70656E20726F6F7420646972656342
:1021C000746F72792E0A0043616E27742066696EFF
:1021D0006420612076616C69642046415431362F59
:1021E000464154333220706172746974696F6E2E87
:1021F0000A006572726F72436F64653A20000A5379
:102200004420696E697469616C697A6174696F6E82
:10221000206661696C65642E0A446F206E6F7420BD
:102220007265666F726D6174207468652063617297
:1022300064210A49732074686520636172642063B5
:102240006F72726563746C7920696E736572746500
:10225000643F0A4973206368697053656C656374F1
:102260002073657420746F2074686520636F7272C8
:102270006563742076616C75653F0A446F657320F1
:10228000616E6F7468657220535049206465766989
:102290006365206E65656420746F206265206469E3
:1022A0007361626C65643F0A497320746865726586
:1022B000206120776972696E672F736F6C64657235
:1022C000696E672070726F626C656D3F00534420C9
:1022D000696E6974206661696C0000004014545096
:1022E000726F746F636F6C2076657273696F6E20A6
:1022F0006368616E6765642C2075706772616469DC
:102300006E67005472616E73666F726D6174696F8F
:102310006E206D61747269783A0044657465637407
:10232000656420454550524F4D2076657273696F44
:102330006E3A00457874722E004550523A332000B0
:102340004550523A3220004550523A312000455013
:10235000523A3020007A5F6D61783A004C20004894
:102360002000795F6D61783A00785F6D61783A009E
:10237000656E6473746F7073206869743A2000002E
:1023800000420FA1071605D0030D038B022E02E8B1
:1023900001B2018601630145012C0117010401F41A
:1023A000000000000000000000000000000000002D
:1023B0000024F403D950C38EB1C2A23D96828B355E
:1023C00082127AE372816CCB66A861015DC758EB1B
:1023D000546151204E1E4B5648C14559431A410184
:1023E0003F093D2F3B7139CD374036C93465331431
:1023F00032D430A32F802E6B2D632C672B752A8E41
:1024000029B028DC2710274B268F25D9242B24829E
:1024100023E0224322AC211A218D200420801F00BA
:102420001F841E0C1E971D261DB81C4E1CE61B8209
:102430001B201BC11A641A0A1AB2195D190A19B9AC
:10244000186A181C18D11788174017FA16B5167392
:10245000163116F115B31576153A150015C7148FF8
:102460001458142214EE13BA13881356132513F6B6
:1024700012C71299126C1240121512EB11C1119869
:1024800011701148112111FB10D610B1108D106977
:1024900010461024100210E10FC00FA00F800F6132
:1024A0000F420F230F060FE80ECB0EAF0E930E77E1
:1024B0000E5C0E410E270E0D0EF30DDA0DC10DA8A8
:1024C0000D900D780D600D490D320D1B0D050DEFB2
:1024D0000CD90CC30CAE0C990C850C700C5C0C4820
:1024E0000C350C210C0E0CFB0BE80BD60BC40BB2FD
:1024F0000BA00B8E0B7D0B6B0B5A0B4A0B390B2968
:102500000B180B080BF80AE90AD90ACA0ABB0AAC6D
:102510000A9D0A8E0A800A710A630A550A470A3917
:102520000A2C0A1E0A110A040AF709EA09DD09D071
:1025300009C409B709AB099F09920987097B096F8B
:1025400009630958094C09410936092B0920091565
:10255000090A090009F508EB08E008D608CC08C20A
:1025600008B808AE08A4089A08900887087D08747F
:10257000086B08610858084F0846083D0834082CC5
:102580000823081A08120809080108F807F007E8E4
:1025900007E007D807D007C807C007B807B007A8E3
:1025A00007A1075761726E696E673A0020633A00AF
:1025B00020623A0020613A00207A3A0020793A00FD
:1025C00020783A00496E76616C69642064656C74A9
:1025D0006120636F6F7264696E617465202D206D78
:1025E0006F76652069676E6F7265640044656C7410
:1025F00061206F766572666C6F773A004E6F206D62
:102600006F766520696E2064656C74612073656700
:102610006D656E742077697468203E203120736583
:10262000676D656E742E20546869732073686F75CA
:102630006C64206E657665722068617070656E20CE
:10264000616E64206D61792063617573652061201E
:1026500070726F626C656D2100696E2071756575B1
:102660006544656C74614D6F766520746F2063619D
:102670006C63756C61746544656C74615375625309
:1026800065676D656E74732072657475726E732004
:102690006572726F722E0000002200250028002B48
:1026A000002E003100340002010000050108010B7A
:1026B00001000020002300260029002C002F0032FA
:1026C000000001000003010601090100000A0B02DD
:1026D000090C0D0E080703040100000000000000B3
:1026E00000000000000000000000000000000000EA
:1026F00000000000000000121110000000000000A7
:1027000000000000000000000000000000000000C9
:102710000002494E46004E414E00436F6E666967A7
:1027200075726174696F6E20726573657420746F61
:102730002064656661756C74732E000000FF0000F4
:102740000000010100000000FF00004465627567A1
:102750004C6576656C3A005072696E7465724D6FA7
:1027600064653A434E43005072696E7465724D6FF2
:1027700064653A4C61736572005072696E7465727B
:102780004D6F64653A464646005859206A65726B3B
:102790002077617320746F6F206C6F772C207365C6
:1027A0007474696E6720746F20004175746F6C6576
:1027B00076656C696E672064697361626C6564003C
:1027C0004175746F6C6576656C696E6720656E61C6
:1027D000626C6564004175746F6C6576656C206D24
:1027E00061747269782072657365740020453A00DF
:1027F000205A3A0020593A00583A005370656564EF
:102800004D756C7469706C793A00466C6F774D75D4
:102810006C7469706C793A0046616E7370656564BA
:102820003A006A6F696E466C6167733A00466C6184
:1028300067733A0073742E2F656E6420737065653C
:10284000643A00616363656C2F646563656C207333
:10285000746570733A007653746172742F456E64B8
:102860003A0049443A00432068697420666C6F6FEF
:10287000720043706F7320782073717561726520E8
:102880000043706F73207820737465707320004369
:10289000706F7320792073717561726520004370C9
:1028A0006F7320792073746570732000422068690B
:1028B0007420666C6F6F720042706F7320782073A3
:1028C0007175617265200042706F73207820737497
:1028D000657073200042706F732079207371756189
:1028E0007265200042706F73207920737465707375
:1028F0002000412068697420666C6F6F720041701F
:102900006F73207820737175617265200041706F5C
:10291000732078207374657073200041706F73208A
:102920007920737175617265200041706F73207931
:10293000207374657073200052657365742066722D
:102940006F6D20436F6E66696700436F6E666967DF
:1029500075726174696F6E005265736574204545C8
:1029600050524F4D0025656A204A616D20436F6EBD
:1029700074726F6C004D756C3A20256F6D2525259E
:10298000202020204C61733A256F702057004D7530
:102990006C3A20256F6D2525252020202053706955
:1029A0003A256F7052504D20005A773A25783720DB
:1029B00020205A3A2578320059773A257836202057
:1029C00020593A2578310058773A2578352020204B
:1029D000583A257830005374617274205A2D507221
:1029E0006F6265004D6573757265202E2E2E005A3C
:1029F0002D4F66667365743A25587A004665726D88
:102A00006500436F6E74696E756500506F732E209C
:102A10005265656C205A3A2557306D6D0054656DCE
:102A2000702E202565632F2545630243004D657395
:102A30002E204861757465757220536F6E64650051
:102A40004C6974202020203A202570620243004502
:102A50007874722E20363A2025703502430045786E
:102A600074722E20353A2025703402430045787464
:102A7000722E20343A202570330243004578747258
:102A80002E20333A20257032024300457874722E8E
:102A900020323A20257031024300457874722E208E
:102AA000313A2025703002430050726563686175C9
:102AB00066666167652054656D702E00507269739B
:102AC000652064274F726967696E65202E2E2E007F
:102AD0004175746F6C6576656C204C697400436158
:102AE0006C69627261676520457272657572004338
:102AF000616C696272616765204C697400202020F6
:102B0000203E3E3E204F6B203C3C3C004E697665AB
:102B10006C6C656D656E74204572726575720046E9
:102B2000696C616D656E7420676C697373616E7436
:102B300000436861756666616765206465636F75EB
:102B4000706C650044656661757420536F6E6465D2
:102B50002054656D702E004E6F74696669636174F0
:102B6000696F6E3A00736F697420646567616765A9
:102B7000006C65206C697420636861756666616EBF
:102B800074004173737572657A2D766F7573207159
:102B90007565002A2A2A2050617469656E74657A09
:102BA000202A2A2A00416E6E756C6500566974658C
:102BB0007373652046616E20323A254653252525DC
:102BC00000446973746F7273696F6E20636F727201
:102BD0002E3A254465004D6573757265207A2D6423
:102BE0006973746F7273696F6E005265676C6167A9
:102BF00065730025506E0025507025252500436F14
:102C0000756368652025506C2F25504C0046696E11
:102C100020646520636F757273653A256470005394
:102C20006574205A206F66667365743A2554326D58
:102C30006D005365742059206F66667365743A257C
:102C400054316D6D005365742058206F666673654E
:102C5000743A2554306D6D00536574207072696E3E
:102C600074206F666673657473004861757465756A
:102C700072205A2D536F6E64653A257A6800254498
:102C800033203320436F706965730025443220324E
:102C900020436F7069657300254431203120436FF4
:102CA0007069650025443020417563756E65204369
:102CB0006F706965002558352053656C6563742E07
:102CC00020457874722E2036002558342053656CC8
:102CD0006563742E20457874722E20350025583394
:102CE0002053656C6563742E20457874722E2034F1
:102CF00000457874727564657573652036204F667B
:102D00006600457874727564657573652035204F6B
:102D10006666004578747275646575736520342045
:102D20004F66660054656D702E2036203A25653555
:102D30002F25453502430054656D702E2035203A0D
:102D40002565342F25453402430054656D702E20CF
:102D500034203A2565332F25453302430020254290
:102D6000436D6D00052565630200052565632F250C
:102D70004563020000256F7300255566206D2049CC
:102D80006D7072696D6500255566206D002555745E
:102D900000583A25783020593A257831004D756C25
:102DA0003A20256F6D202020453A257834005A3A84
:102DB0002578322020427566203A20256F42004255
:102DC0002565422F2545620200052565632F2545AF
:102DD0006302422565422F2545620200256F73007C
:102DE0004275663A20256F42004D756C3A20256F7A
:102DF0006D25252520FD202020453A202578346D9D
:102E000000466C6F773AFD20256F6625252520202A
:102E1000205A3A257832002020202020202020200F
:102E200020202020593A257831000A202565302FAE
:102E3000254530B020583A257830004C616E6775D2
:102E400065004570616973736575723A2542436D1B
:102E50006D00506572736F6E6E656C004261746FC9
:102E60006E20646520436F6C6C6500527562616E04
:102E700020766572742050455400426C756520546C
:102E8000617065004B6170746F6E004275696C64AF
:102E900054616B00417563756E205265766574658B
:102EA0006D656E7400005265766574656D656E744F
:102EB000206465204C69743A005265766574656DCE
:102EC000656E74206465204C6974005374616E648F
:102ED00062790053746F636B61676520642745787E
:102EE00074727573696F6E006369626C6573202E0E
:102EF0002E2E00417474656E64657A2054656D7081
:102F00002E00526563686175666665722045787447
:102F10007275642E00436C697175657A20706F75E7
:102F2000720049676E6F726572204D313036202510
:102F3000466900506F732E20536572766F3A2025D4
:102F40006F53004175746F6C6576656C3A20256C23
:102F50006C00436F6E74696E75657220617665638F
:102F600020436C69630046696C616D656E7420680E
:102F70006175742F62617300546F75726E657A208B
:102F80004465706C61636572004368616E67656D6E
:102F9000656E742046696C616D656E74004368618E
:102FA0006E67656D656E742046696C616D656E74E3
:102FB000005A2042616279737465702E3A256F5908
:102FC0006D6D00417272657420496D707265737326
:102FD0002E00546F7574206F75205269656E005411
:102FE000656D7073204D6F72740041545820706F7E
:102FF000776572206F6E2F6F666600496D7072691B
:103000006D650046696C616D656E7420496D707206
:10301000696D650054656D707320496D70726573DC
:1030200073696F6E00003A00206A6F75727320003A
:10303000496D7072696D616E74652070726574653A
:1030400000436172746520534420696E7365726534
:10305000650043617274652053442072657469721F
:103060006565004174742E20556E6974733A255855
:10307000556D6D004174742E2054656D702E255869
:10308000540243004E69766561752064656C746115
:103090000043616C63756C6572204E6976656C6C7B
:1030A000656D656E74005265676C65722050330003
:1030B0005265676C6572205032005265676C6572AC
:1030C000205031005A2043616C69622E00526567BE
:1030D0006C6572205A3D30005265736574204D65F1
:1030E00073757265004D6F6E74726572204D6573F5
:1030F00075726500466C6F77204D756C2E3A256FA2
:1031000066252525005669742E204D756C2E3A25AE
:103110006F6D2525250020423A2565622F254562E1
:1031200002437E256F620045333A2565322F2545DF
:103130003202437E256F320045323A2565312F2514
:10314000453102437E256F310045313A2565302FE8
:1031500025453002437E256F300020453A256563C2
:103160002F25456302437E256F430054616D706FC8
:103170006E3A256F420054656C65636861726765DD
:103180006D656E742E2E0043686172672E203C3D83
:1031900020454550524F4D00436F6E66696775720A
:1031A0006174696F6E0053746F636B2E203D3E2017
:1031B000454550524F4D00436F6E666967757261A9
:1031C00074696F6E004D6F74657572732041727211
:1031D000657465730053746F707065004368617542
:1031E00066662E204C6974004368617566662E2001
:1031F0004578747275642E00416374696F6E3A2568
:103200006C61005049440042616E6742616E670024
:10321000592D4F66667365743A25587900582D4FBD
:1032200066667365743A25587800504944204D61AC
:10323000783A255844004472697665204D61783AA1
:1032400025584D004472697665204D696E3A2558BF
:103250006D0050494420443A2558640050494420A8
:10326000493A2558690050574D20436F6E74726F6C
:103270006C3A25584D0054656D7073204D6F727413
:103280003A2558700050494420503A255870004360
:103290006F6E74726F6C653A255868004176616E86
:1032A000636520717561643A255861004176616EED
:1032B0006365206C696E3A25586C00537461622E08
:1032C00054656D70733A25587700416363656C3AB5
:1032D000255841004D61782046523A255846005302
:1032E000746172742046523A255866005061732FFB
:1032F0004D4D3A2553650042617564726174653ABB
:10330000256F630047656E6572616C005B6D696E69
:103310005D20303D4F6666004469732E2041707217
:1033200065733A2025697000417272657420416CA2
:10333000696D2E005B6D696E5D20303D4F666600E5
:103340004469732E2041707265733A2025697300B9
:103350004172726574204D6F7465757273005665A5
:103360006E74696C2E204D61780056656E74696CC0
:103370002E2037352525250056656E74696C2E2064
:1033800035302525250056656E74696C2E20323542
:103390002525250041727265742056656E74696C2E
:1033A0002E005669742E2056656E74696C2E3A256F
:1033B0004673252525005669742E2056656E74695E
:1033C0006C2E004D696E3A25737A204D61783A254E
:1033D000735A005A3A257832206D6D004D696E3A65
:1033E000257379204D61783A25735900593A25782B
:1033F00031206D6D004D696E3A257378204D6178EE
:103400003A25735800583A257830206D6D004D6983
:103410006E3A25737A204D61783A25735A005A3AEC
:10342000257832206D6D004D696E3A257379204DF7
:1034300061783A25735900593A257831206D6D002D
:103440004D696E3A257378204D61783A257358009E
:10345000583A257830206D6D003120636C69632007
:103460003D2031206D6D00453A257833206D6D008B
:10347000004D61782042757465653A25735A004D98
:10348000696E2042757465653A25737A005A3A254B
:103490007832206D6D00004D61782042757465654D
:1034A0003A257359004D696E2042757465653A2559
:1034B000737900593A257831206D6D00004D61789F
:1034C0002042757465653A257358004D696E204237
:1034D000757465653A25737800583A257830206D03
:1034E0006D00004D61782042757465653A25735A08
:1034F000004D696E2042757465653A25737A005AED
:103500003A257832206D6D2025647A25645A0000B2
:103510004D61782042757465653A257359004D698F
:103520006E2042757465653A25737900593A25789D
:1035300031206D6D2025647925645900004D617836
:103540002042757465653A257358004D696E2042B6
:10355000757465653A25737800583A257830206D82
:103560006D20256478256458004163637565696C36
:103570003A25665A004163637565696C205A3A259D
:10358000665A004163637565696C20593A2566592E
:10359000004163637565696C20583A256658004D93
:1035A00061783A25667A004D6178205A3A25667A24
:1035B000004D617820593A256679004D6178205890
:1035C0003A256678004176616E63650053757070C8
:1035D0002E206669636869657200496E736572655D
:1035E000722043617274650052657469726572205D
:1035F000436172746500436F6E74696E7565722005
:10360000496D70726573732E005061757365204942
:103610006D70726573732E00496D7072696D2E2026
:103620006669636869657200416E7469204F6F7ADC
:1036300065004465706C61632E2041707265733A59
:10364000254F61004D696E2E646973743A254F648D
:10365000004261636B736C2E203A254F6200526505
:1036600074726163742E203A254F7200254F322008
:103670004F50532052617069646500254F31204FCF
:10368000505320436C61737369712E00254F3020B5
:103690004F5053204F666600466F6E63742E206154
:1036A00020566964653A25646400457272657572D6
:1036B000732020202020203A25646500496E666F23
:1036C0002020202020202020203A25646900456306
:1036D000686F2020202020202020203A25646F00C1
:1036E00043686172672E203C3D20454550524F4D46
:1036F0000053746F636B2E203D3E20454550524F62
:103700004D00416363656C65726174696F6E005A48
:103710002D4A65726B3A25614A004A65726B3A25FB
:10372000616A004465706C61632E3A25615A0044F9
:1037300065706C61632E205A3A25615A00446570A9
:103740006C61632E20593A256159004465706C61A3
:10375000632E20583A25615800496D7072696D2EAC
:103760003A25617A00496D7072696D2E205A3A25AA
:10377000617A00496D7072696D2E20593A25617920
:1037800000496D7072696D2E20583A25617800539A
:103790006574204F726967696E0025583220536541
:1037A0006C6563742E20457874722E203300255882
:1037B000312053656C6563742E20457874722E2019
:1037C00032002558302053656C6563742E2045788F
:1037D00074722E2031004578747275646575736556
:1037E0002033204F66660045787472756465757382
:1037F000652032204F666600457874727564657581
:1038000073652031204F66660054656D702E20333D
:10381000203A2565322F25453202430054656D70EC
:103820002E2032203A2565312F25453102430054A0
:10383000656D702E2031203A2565302F25453002E8
:1038400043004C69742054656D703A2565622F25DC
:103850004562024300506F736974696F6E2045784A
:1038600074722E00506F732E20526170696465204F
:103870005A00506F736974696F6E205A00506F73ED
:103880002E20526170696465205900506F7369740D
:10389000696F6E205900506F732E205261706964F9
:1038A00065205800506F736974696F6E205800442A
:1038B000657361637469762E204D6F7465757273DC
:1038C000005265676C657A20737572204F72696764
:1038D000696E6500526566726F696469720045635E
:1038E0006C616972616765203A256C6F0050726582
:1038F0006865617420416C6C20457874722E0050AC
:103900007265686561742053696E676C65204578DF
:1039100074722E004163637565696C205A004163BF
:10392000637565696C2059004163637565696C2036
:1039300058004163637565696C2058595A004163AA
:10394000637565696C2044656C7461004465626FE1
:103950006775657200436172746520534400457851
:10396000747275646575736500506F736974696FFF
:103970006E00436F6E66696775726174696F6E0081
:10398000256F6500436F6E74726F6C6500526574CD
:103990006F75722001002A2A2A2A20455252455565
:1039A00052202A2A2A2A005061732064652043612C
:1039B000727465205344004175205265706F730026
:1039C000496D7072657373696F6E00496D707265D1
:1039D0007373696F6E2E2E2E004E6F6E004F7569D9
:1039E000004E2F41004F6666004F6E0052657365B2
:1039F000742066726F6D20436F6E66696700436F57
:103A00006E66696775726174696F6E005265736581
:103A10007420454550524F4D0025656A204A616D1E
:103A200020436F6E74726F6C004D756C3A20256F79
:103A30006D252525202020204C61733A256F7020AC
:103A400057004D756C3A20256F6D252525202020C7
:103A5000205370693A256F7052504D20005A773AC2
:103A60002578372020205A3A2578320059773A2590
:103A70007836202020593A2578310058773A257831
:103A800035202020583A2578300053746172742014
:103A90005A2D50726F6265004D6561737572696E63
:103AA00067202E2E2E005A2D4F66667365743A25B8
:103AB000587A00436C6F736500436F6E74696E755E
:103AC00065005265616C205A20506F733A2557305B
:103AD0006D6D0054656D702E202565632F2545633F
:103AE0000243004D6561732E2050726F626520485D
:103AF000656967687400426564202020203A2025AB
:103B00007062024300457874722E20363A20257088
:103B100035024300457874722E20353A20257034E2
:103B2000024300457874722E20343A202570330207
:103B30004300457874722E20333A202570320243B8
:103B400000457874722E20323A20257031024300ED
:103B5000457874722E20313A20257030024300508F
:103B60007265686561742054656D70657261747505
:103B700072657300486F6D696E672E2E2E00417559
:103B8000746F6C6576656C206265640043616C6976
:103B900062726174696F6E204572726F7200436168
:103BA0006C6962726174696E6720626564002020CE
:103BB00020203E3E3E204F6B203C3C3C004C657636
:103BC000656C696E67206572726F720046696C6120
:103BD0006D656E7420736C697070696E67004865FE
:103BE00061746572206465636F75706C6564005400
:103BF000656D702E2073656E736F722064656665E7
:103C00006374004E6F74696669636174696F6E3ABC
:103C1000006F62737472756374696F6E73006265AE
:103C20006420697320636C656172206F6620616E29
:103C300079004D616B65207375726520746865202D
:103C4000686561746564002A2A2A20506C65617376
:103C5000652077616974202A2A2A0043616E6365B2
:103C60006C0046616E20322073706565643A2546AB
:103C70005325252500446973746F7274696F6E2033
:103C8000636F72722E3A254465004D6561737572DB
:103C900065207A2D646973746F7274696F6E005356
:103CA000657475700025506E00255070252525001F
:103CB000436170612025506C2F25504C00456E6487
:103CC00053746F703A25647000536574205A206FE6
:103CD00066667365743A2554326D6D0053657420C1
:103CE00059206F66667365743A2554316D6D0053C3
:103CF00065742058206F66667365743A2554306D7C
:103D00006D00536574207072696E74206F666673FF
:103D100065747300416C74757261205A2D50726F16
:103D200062653A257A6800254433203320436F705A
:103D300069617300254432203220436F70696173DA
:103D400000254431203120436F70696100254430E3
:103D5000204E6F2048617920436F706961730025A0
:103D600058352053656C65637420457874722E2035
:103D700036002558342053656C656374204578748B
:103D8000722E2035002558332053656C65637420EE
:103D9000457874722E2034004578747275736F7292
:103DA0002036204F6666004578747275736F7220F6
:103DB00035204F6666004578747275736F722034D3
:103DC000204F66660054656D702E2036203A2565BA
:103DD000352F25453502430054656D702E20352062
:103DE0003A2565342F25453402430054656D702E05
:103DF0002034203A2565332F254533024300202502
:103E000042436D6D00052565630200052565632F3E
:103E1000254563020000256F7300255566206D203F
:103E2000696D707265736F00255566206D002555AC
:103E30007400583A25783020593A257831004D756C
:103E40006C3A20256F6D202020453A257834005AA1
:103E50003A2578322020427566203A20256F4200AC
:103E6000422565422F2545620200052565632F2501
:103E7000456302422565422F2545620200256F7386
:103E8000004275663A20256F42004D756C3A202538
:103E90006F6D25252520FD202020453A20257834EA
:103EA0006D00466C756A6F3AFD20256F66252525E5
:103EB00020205A3A2578320020202020202020205F
:103EC0002020202020593A257831000A202565300D
:103ED0002F254530B020583A257830004964696F65
:103EE0006D6100437573746F6D3A2542436D6D00CB
:103EF000437573746F6D0042617272612064652056
:103F0000706567616D656E746F00566572646520DB
:103F10005045542063696E74610043696E7461207A
:103F2000616468657369766120617A756C004B61C4
:103F300070746F6E004275696C6454616B005369F4
:103F40006E20726563756272696D69656E746F006B
:103F5000005265632E2063616D6120616A75737420
:103F600061646F206100526563756272696D696595
:103F70006E746F2063616D61005374616E64627969
:103F80000041746173636F206578747275736F722A
:103F900061006F626A657469766F202E2E2E00456F
:103FA000737065726520612074656D702E00726596
:103FB00063616C656E74617220657874722E00485E
:103FC00061676120636C6963207061726100496799
:103FD0006E6F726172204D31303620636D64202522
:103FE000466900506F732E20736572766F3A2025F4
:103FF0006F53004175746F6C6576656C3A20256C63
:104000006C00436C6963206375616E646F20736537
:1040100020686163650066696C2E20617272696256
:10402000612F6162616A6F00476972652070617219
:1040300061206D6F7665720043616D62696F206605
:10404000696C616D656E746F0043616D62696F20AC
:1040500066696C616D656E746F005A2042616279A9
:10406000737465702E3A256F596D6D0044657465E3
:104070006E657220696D70726573696F6E00536C46
:104080006F7742616E67005469656D706F206D7562
:104090006572746F00456E6572676965204154589A
:1040A000206F6E2F6F666600696D707265736F00AA
:1040B00046696C616D656E746F20696D70726573B1
:1040C00061007469656D706F20646520696D707240
:1040D0006573696F6E00003A0020646961732000A7
:1040E000496D707265736F7261206C697374612EB3
:1040F000005461726A65746120534420696E73656F
:104100007274616461005461726A65746120534421
:1041100020726574697261004573706572616E64C6
:104120006F20556E696461643A2558556D6D004580
:1041300073706572616E646F2054656D702E2558C2
:10414000540243004E6976656C2064656C746100AE
:1041500043616C63756C61206E6976656C6163693F
:104160006F6E0053657420503300536574205032D5
:1041700000536574205031005A2063616C69622ECF
:1041800000536574205A3D30005265736574656153
:1041900072206D65646963696F6E004D6F73747230
:1041A0006172206D65646963696F6E004D756C7432
:1041B0002E20466C756A6F3A256F66252525004DC1
:1041C000756C742E2056656C6F63696461642E3A59
:1041D000256F6D2525250020423A2565622F25454E
:1041E0006202437E256F620045333A2565322F25F2
:1041F000453202437E256F320045323A2565312F24
:1042000025453102437E256F310045313A25653021
:104210002F25453002437E256F300020453A256525
:10422000632F25456302437E256F43004275666612
:1042300065723A256F420041637475616C697A61F9
:104240006E646F2E2E2E006361726761646120645C
:104250006520454550524F4D00436F6E6669672E8D
:1042600000616C6D6163656E61646120656E2045FF
:104270004550524F4D00436F6E6669672E0044658E
:1042800073686162696C697461206D6F746F72002C
:1042900041626F7274610043616C656E74616E643B
:1042A0006F2043616D610043616C656E74616E6483
:1042B0006F204578747275736F7200416363696F24
:1042C0006E3A256C61005049440042616E6742615C
:1042D0006E6700592D4F66667365743A25587900EC
:1042E000582D4F66667365743A25587800504944D6
:1042F000204D61783A255844004472697665204D16
:1043000061783A25584D004472697665204D696E92
:104310003A25586D0050494420443A2558640050CD
:10432000494420493A2558690050574D20636F6E23
:1043300074726F6C3A25584D005469656D706F202A
:104340006D756572746F3A2558700050494420505D
:104350003A25587000436F6E74726F6C3A25586836
:1043600000416476616E636520717561643A255819
:104370006100416476616E6365206C696E3A255810
:104380006C005469656D706F2045737461622E3ADC
:10439000255877004163656C3A255841004D617896
:1043A0002046523A25584600537461727420465292
:1043B0003A255866005061736F732F4D4D3A25535F
:1043C000650042617564726174653A256F630047E8
:1043D000656E6572616C005B6D696E5D20303D4F8E
:1043E0006666004469732E20446573707565733A80
:1043F00020256970004D61782E20496E61637469D3
:10440000766F005B6D696E5D20303D4F66660044DF
:1044100069732E20446573707565733A202569733E
:10442000004D6F746F7220496E61637469766F001E
:1044300056656E74696C61646F7220616C203130F6
:10444000302525250056656E74696C61646F722095
:10445000616C2037352525250056656E74696C61C1
:10446000646F7220616C2035302525250056656EFD
:1044700074696C61646F7220616C2032352525256A
:104480000041706167612076656E74696C61646F6C
:10449000720056656C2E2076656E742E3A25467332
:1044A0002525250056656C6F636964612076656E0D
:1044B00074696C61646F72004D696E3A25737A207D
:1044C0004D61783A25735A005A3A257832206D6D3D
:1044D000004D696E3A257379204D61783A257359FC
:1044E00000593A257831206D6D004D696E3A25737B
:1044F00078204D61783A25735800583A2578302055
:104500006D6D004D696E3A25737A204D61783A25BC
:10451000735A005A3A257832206D6D004D696E3A13
:10452000257379204D61783A25735900593A2578D9
:1045300031206D6D004D696E3A257378204D61789C
:104540003A25735800583A257830206D6D00312097
:10455000636C69636B203D2031206D6D00453A2509
:104560007833206D6D00004D61783A25735A00460E
:10457000696E2043617272657261204D696E3A25E1
:10458000737A005A3A257832206D6D00004D6178BB
:104590003A2573590046696E2043617272657261F3
:1045A000204D696E3A25737900593A257831206D8E
:1045B0006D00004D61783A2573580046696E2043BE
:1045C000617272657261204D696E3A257378005888
:1045D0003A257830206D6D00004D61783A25735A88
:1045E0000046696E2043617272657261204D696E8A
:1045F0003A25737A005A3A257832206D6D20256469
:104600007A25645A00004D61783A2573590046694D
:104610006E2043617272657261204D696E3A257336
:104620007900593A257831206D6D2025647925640B
:104630005900004D61783A2573580046696E204351
:10464000617272657261204D696E3A257378005807
:104650003A257830206D6D2025647825645800480F
:104660006F6D653A25665A005A20486F6D653A2588
:10467000665A005920486F6D653A256659005820E2
:10468000486F6D653A256658004D61783A25667A1F
:10469000005A204D61783A25667A0059204D61789C
:1046A0003A2566790058204D61783A2566780046AB
:1046B0006565647261746500426F7272616E646FE9
:1046C000206669636865726F004D6F6E74616E6419
:1046D0006F2043617264004465736D6F6E74616E28
:1046E000646F205461726A65746100436F6E74690F
:1046F0006E75616E646F20696D70726573696F6E3F
:104700000050617573616E646F20696D70726573BE
:10471000696F6E00496D7072696D69656E646F20B6
:104720006669636865726F00416E7469204F6F7AC5
:1047300065004D6F76652061667465723A254F613C
:10474000004D696E2E646973743A254F64004261AE
:10475000636B736C2E203A254F6200526574726150
:104760006363696F6E203A254F7200254F32204FE8
:1047700050532052617069646100254F31204F50C1
:104780005320436C61737369636100254F30204F80
:104790005053204F666600456A65637563696F6EA6
:1047A00020766163696F3A256464004572726F72A6
:1047B00073203A25646500496E666F2020203A25F3
:1047C0006469004563686F2020203A25646F0043C8
:1047D0006172676120646520454550524F4D00412C
:1047E0006C6D6163656E6120656E20454550524F6A
:1047F0004D004163656C65726163696F6E005A2D8F
:104800004A65726B3A25614A004A65726B3A2561C6
:104810006A004D756576653A25615A004D75657675
:1048200065205A3A25615A004D7565766520593ADA
:10483000256159004D7565766520583A2561580007
:104840005072696E743A25617A005072696E7420F4
:104850005A3A25617A005072696E7420593A25617E
:1048600079005072696E7420583A25617800466963
:104870006A61204F726967696E656E002558322043
:1048800053656C65637420457874722E203300255F
:1048900058312053656C65637420457874722E20FE
:1048A00032002558302053656C6563742045787458
:1048B000722E2031004578747275736F7220332028
:1048C0004F6666004578747275736F722032204FA0
:1048D0006666004578747275736F722031204F667A
:1048E000660054656D702E2033203A2565322F25E1
:1048F000453202430054656D702E2032203A256502
:10490000312F25453102430054656D702E20312032
:104910003A2565302F25453002430054656D702ED1
:1049200043616D613A2565622F254562024300456A
:104930007874722E20506F736963696F6E00506FC8
:10494000732E20526170696461205A00506F736940
:1049500063696F6E205A00506F732E205261706928
:104960006461205900506F736963696F6E2059004C
:10497000506F732E20526170696461205800506F2F
:10498000736963696F6E205800446573616374696D
:104990007661206D6F746F720046696A61206120D4
:1049A0006F726967656E00456E6672696172004C70
:1049B000756365733A256C6F005072656865617444
:1049C00020416C6C20457874722E005072656865C9
:1049D00061742053696E676C6520457874722E008F
:1049E0005A20486F6D65005920486F6D650058204A
:1049F000486F6D6500546F646F20486F6D650044AB
:104A0000656C746120486F6D650044656275676709
:104A1000696E67005461726A657461205344004591
:104A200078747275736F7200506F736963696F6E1B
:104A300000436F6E66696775726163696F6E00250A
:104A40006F6500436F6E74726F6C004174726173B6
:104A50002001002A2A2A2A204552524F52202A2A6F
:104A60002A2A0053696E207461726A65746120534A
:104A7000440049646C6500496D7072696D69656ECA
:104A8000646F00496D7072696D69656E646F2E2E7A
:104A90002E004E6F005369004E2F41004F66660096
:104AA0004F6E0052657365742066726F6D20436FA0
:104AB0006E66696700436F6E6669677572617469D7
:104AC0006F6E00526573657420454550524F4D001E
:104AD00025656A204A616D20436F6E74726F6C00A9
:104AE0004D756C3A20256F6D252525202020204C02
:104AF00061733A256F702057004D756C3A20256F11
:104B00006D252525202020205370693A256F70528D
:104B1000504D20005A773A2578372020205A3A25E0
:104B200078320059773A257836202020593A25786E
:104B3000310058773A257835202020583A257830AA
:104B4000005374617274205A2D50726F6265004D6B
:104B50006561737572696E67202E2E2E005A2D4F77
:104B600066667365743A25587A00436C6F73650006
:104B7000436F6E74696E7565005265616C205A20D2
:104B8000506F733A2557306D6D0054656D702E204F
:104B90002565632F2545630243004D6561732E2013
:104BA00050726F6265204865696768740042656489
:104BB000202020203A20257062024300457874723C
:104BC0002E20363A20257035024300457874722E27
:104BD00020353A20257034024300457874722E2027
:104BE000343A20257033024300457874722E203306
:104BF0003A20257032024300457874722E20323AF2
:104C000020257031024300457874722E20313A20FD
:104C100025703002430050726568656174205465E8
:104C20006D70657261747572657300486F6D696E41
:104C3000672E2E2E004175746F6C6576656C206250
:104C400065640043616C6962726174696F6E2045CE
:104C500072726F720043616C6962726174696E672F
:104C60002062656400202020203E3E3E204F6B20C5
:104C70003C3C3C004C6576656C696E6720657272E1
:104C80006F720046696C616D656E7420736C69703B
:104C900070696E6700486561746572206465636F52
:104CA00075706C65640054656D702E2073656E734D
:104CB0006F7220646566656374004E6F746966691F
:104CC000636174696F6E3A006F62737472756374B6
:104CD000696F6E730062656420697320636C65613F
:104CE00072206F6620616E79004D616B652073756F
:104CF00072652074686520686561746564002A2A9D
:104D00002A20506C656173652077616974202A2AB6
:104D10002A0043616E63656C0046616E2032207329
:104D2000706565643A2546532525250044697374EA
:104D30006F7274696F6E20636F72722E3A254465CC
:104D4000004D656173757265207A2D646973746FA7
:104D50007274696F6E0053657475700025506E0033
:104D6000255070252525004C617965722025506CF1
:104D70002F25504C00456E6453746F703A25647053
:104D800000536574205A206F66667365743A255423
:104D9000326D6D005365742059206F6666736574BB
:104DA0003A2554316D6D005365742058206F666646
:104DB0007365743A2554306D6D00536574207072BC
:104DC000696E74206F66667365747300416C7465F8
:104DD0007A7A61205A2D50726F62653A257A68009E
:104DE000254433203320436F706965002544322009
:104DF0003220436F70696500254431203120436FB4
:104E000070696100254430204E657373756E6120B2
:104E1000436F706961002558352053656C657A6968
:104E20006F6E6120457374722E2036002558342031
:104E300053656C657A696F6E6120457374722E20BC
:104E400035002558332053656C657A696F6E612093
:104E5000457374722E2034004573747275736F72CB
:104E6000652036205370656E746F004573747275DB
:104E7000736F72652035205370656E746F004573D3
:104E8000747275736F72652034205370656E746F21
:104E90000054656D702E2036203A2565352F254546
:104EA0003502430054656D702E2035203A25653457
:104EB0002F25453402430054656D702E2034203A6E
:104EC0002565332F254533024300202542436D6D70
:104ED00000052565630200052565632F25456302EE
:104EE0000000256F7300255566206D207374616D79
:104EF0007061746F00255566206D0025557400584B
:104F00003A25783020593A257831004D756C3A2091
:104F1000256F6D202020453A257834005A3A2578AF
:104F2000322020427566203A20256F4200422565D6
:104F3000422F2545620200052565632F2545630242
:104F4000422565422F2545620200256F7300427598
:104F5000663A20256F42004D756C3A20256F6D250D
:104F6000252520FD202020453A202578346D004657
:104F70006C7573736F3AFD20256F66252525205AC1
:104F80003A257832002020202020202020202020B8
:104F90002020593A257831000A202565302F2545F3
:104FA00030B020583A257830004C696E6775610042
:104FB0005573616E7A613A2542436D6D0055736198
:104FC0006E7A6100436F6C6C6120737469636B006F
:104FD000566572646520504554206E617374726F1B
:104FE00000426C75206E617374726F20616465732A
:104FF00069766F004B6170746F6E004275696C6406
:1050000054616B004E6F6E207269766573746974BB
:105010006F0000526976657374696D656E746F20F8
:105020006C6574746F3A00526976657374696D6566
:105030006E746F206C6574746F005374616E642DB0
:1050400062790053746F6363616767696F2065738A
:10505000747275736F726500646920646573746936
:105060006E617A696F6E65202E2E2E004174746514
:105070006E64657265206368652074656D702E00CE
:1050800072697363616C64617265206573747275B3
:10509000736F726900436C696363612070657200AD
:1050A00049676E6F7261204D31303620636D642028
:1050B00025466900506F732E20736572766F3A2013
:1050C000256F53004175746F6C69762E3A20256CFC
:1050D0006C00436C69636361207175616E646F205D
:1050E000666174746F0066696C616D656E746F20C3
:1050F00073752F6769750052756F746172652070E2
:1051000065722073706F73746172650043616D62C4
:1051100069612066696C616D656E746F0043616DD5
:105120006269612066696C616D656E746F005A20FA
:1051300042616279737465702E3A256F596D6D0006
:105140004172726573746F205374616D70610053A6
:105150006C6F7742616E670054656D706F206D6F84
:1051600072746F00415458206F6E2F6F6666007323
:1051700074616D7061746F0046696C616D656E7409
:10518000207374616D706174610054656D706F207F
:105190006469207374616D706100003A0020676972
:1051A0006F726E6920005374616D70616E7465205A
:1051B00070726F6E74612E005344204361726420DC
:1051C000696E73657269746100534420436172644F
:1051D0002072696D6F73736F004174746573612021
:1051E000556E697461273A2558556D6D0041747488
:1051F0006573612054656D702E2558540243004C30
:105200006976656C6C6F2064656C74610043616CD9
:10521000636F6C2E206C6976656C6C616D656E7465
:105220006F00496D706F737461746F205033004963
:105230006D706F737461746F20503200496D706FC0
:10524000737461746F205031005A2043616C69623D
:105250002E00536574205A3D300052697072697394
:1052600074696E6F206469206D6973757261004D99
:105270006F73747261206469206D69737572610067
:105280004D6F6C742E20466C7573736F3A256F6684
:10529000252525004D6F6C742E2056656C6F636953
:1052A0007461273A256F6D2525250020423A256532
:1052B000622F25456202437E256F620045333A2501
:1052C00065322F25453202437E256F320045323A42
:1052D0002565312F25453102437E256F310045314B
:1052E0003A2565302F25453002437E256F3000205A
:1052F000453A2565632F25456302437E256F4300AC
:1053000054616D706F6E653A256F4200436172693A
:1053100063616D656E746F2E2E2E0043617269633A
:1053200061746120646120454550524F4D00436FC8
:105330006E6669677572617A696F6E650053616C3C
:105340007661746120696E20454550524F4D00438F
:105350006F6E6669677572617A696F6E6500537406
:105360006570706572204469736162696C6974610B
:10537000746F0041626F727469746F005269736375
:10538000616C642E2050696174746F00526973639C
:10539000616C642E204573747275736F7265004181
:1053A0007A696F6E653A256C61005049440042612C
:1053B0006E6742616E6700592D4F66667365743A79
:1053C00025587900582D4F66667365743A255878CC
:1053D00000504944204D61783A2558440044726990
:1053E0007665204D61783A25584D0044726976659E
:1053F000204D696E3A25586D0050494420443A25A5
:1054000058640050494420493A25586900436F6E5A
:1054100074726F6C6C6F2050574D3A25584D005484
:10542000656D706F206D6F72746F3A255870005003
:10543000494420503A25587000436F6E74726F6C67
:105440006C6F3A255868004176616E7A616D656EC1
:10545000746F206573706F6E3A25586100417661F4
:105460006E7A616D656E746F206C696E3A25586C4A
:105470000054656D706F20537461622E3A25587721
:1054800000416363656C3A2558410056656C6F6353
:1054900069746127204D61783A2558460056656C3D
:1054A0006F636974612720417676696F3A25586683
:1054B0000050617373692F6D6D3A25536500426129
:1054C0007564726174653A256F630047656E657235
:1054D000616C65005B6D696E5D20303D4F666600F6
:1054E0004469732E2041667465723A202569700004
:1054F0004D61782E20496E617474697669746127F4
:10550000005B6D696E5D20303D4F666600446973D7
:105510002E20646F706F3A20256973005374657094
:1055200070657220496E6174746976690056656EA3
:10553000746F6C6120616C206D617373696D6F00B5
:1055400056656E746F6C6120616C2525250056656B
:105550006E746F6C6120616C2525250056656E7434
:105560006F6C6120616C20323525252500537065F4
:10557000676E696D656E746F2056656E746F6C61D1
:105580000056656C2E2056656E746F6C613A254628
:10559000732525250056656C6F6369746120566517
:1055A0006E746F6C61004D696E3A25737A204D619F
:1055B000783A25735A005A3A257832206D6D004D9D
:1055C000696E3A257379204D61783A2573590059EF
:1055D0003A257831206D6D004D696E3A257378203B
:1055E0004D61783A25735800583A257830206D6D12
:1055F000004D696E3A25737A204D61783A25735AC9
:10560000005A3A257832206D6D004D696E3A257347
:1056100079204D61783A25735900593A257831201F
:105620006D6D004D696E3A257378204D61783A258D
:10563000735800583A257830206D6D00312073631F
:105640006174746F203D2031206D6D00453A2578DE
:1056500033206D6D00004D61782066696E65632EA4
:105660003A25735A004D696E2066696E65632E3A5D
:1056700025737A005A3A257832206D6D00004D610D
:10568000782066696E65632E3A257359004D696E00
:105690002066696E65632E3A25737900593A25783C
:1056A00031206D6D00004D61782066696E65632E56
:1056B0003A257358004D696E2066696E65632E3A0F
:1056C00025737800583A257830206D6D00004D61C3
:1056D000782066696E65632E3A25735A004D696EAF
:1056E0002066696E65632E3A25737A005A3A2578EA
:1056F00032206D6D2025647A25645A00004D617852
:105700002066696E65632E3A257359004D696E20D7
:1057100066696E65632E3A25737900593A257831AA
:10572000206D6D2025647925645900004D61782035
:1057300066696E65632E3A257358004D696E206662
:10574000696E65632E3A25737800583A25783020C3
:105750006D6D20256478256458004F726967696E05
:10576000653A25665A004F726967696E65205A3A34
:1057700025665A004F726967696E6520593A256639
:1057800059004F726967696E6520583A256658005E
:105790004D617373696D6F3A25667A004D6173735D
:1057A000696D6F205A3A25667A004D617373696D91
:1057B0006F20593A256679004D617373696D6F20CA
:1057C000583A2566780056656C6F636974612700E6
:1057D00043616E63656C6C612066696C6500436152
:1057E0007269636120536368656461005363617229
:1057F0006963612053636865646100436F6E746917
:105800006E7561205374616D7061005061757361D4
:10581000205374616D7061005374616D7061206616
:10582000696C6500416E746920676F63636961002C
:105830004D6F76696D656E746F20646F706F3A2579
:105840004F610044697374616E7A61204D696E2EF8
:105850003A254F640047696F636F2062617272611D
:105860003A254F620052697469726F203A254F726F
:1058700000254F32204F50532056656C6F636500F2
:10588000254F31204F505320436C61737369636F10
:1058900000254F30204F5053205370656E746F00B9
:1058A00053696D756C617A696F6E653A2564640041
:1058B0004572726F7269203A25646500496E666FA1
:1058C0002020203A2564690045636F202020203A7B
:1058D00025646F00436172696361206461204545FE
:1058E00050524F4D0053616C766120696E204545E2
:1058F00050524F4D00416363656C6572617A696F08
:105900006E650053636174746F2D5A3A25614A00C5
:1059100053636174746F3A25616A004D6F76696DE7
:10592000656E746F3A25615A004D6F76696D656ECC
:10593000746F205A3A25615A004D6F76696D656E15
:10594000746F20593A256159004D6F76696D656E07
:10595000746F20583A256158005374616D70613A34
:1059600025617A005374616D7061205A3A25617A1D
:10597000005374616D706120593A25617900537448
:10598000616D706120583A25617800496D706F73C0
:105990007461204F726967696E6500255832205323
:1059A000656C657A696F6E6120457374722E203361
:1059B000002558312053656C657A696F6E6120450A
:1059C0007374722E2032002558302053656C657A2E
:1059D000696F6E6120457374722E203100457374B7
:1059E0007275736F72652033205370656E746F002B
:1059F0004573747275736F72652032205370656ED3
:105A0000746F004573747275736F72652031205323
:105A100070656E746F0054656D702E2033203A25CA
:105A200065322F25453202430054656D702E2032B9
:105A3000203A2565312F25453102430054656D70AC
:105A40002E2031203A2565302F2545300243005461
:105A5000656D702E50696174746F3A2565622F25EB
:105A60004562024300506F73697A696F6E65204525
:105A700073747275736F726500506F732E205A20A5
:105A800056656C6F636500506F73697A696F6E65F8
:105A9000205A00506F732E20592056656C6F636535
:105AA00000506F73697A696F6E65205900506F738B
:105AB0002E20582056656C6F636500506F73697AAD
:105AC000696F6E652058004469736162696C69741E
:105AD00061205374657070657200496D706F7374E6
